{
  "_format": "hh-sol-artifact-1",
  "contractName": "SmartPublicSale",
  "sourceName": "contracts/SmartPublicSale.sol",
  "abi": [
    {
      "inputs": [
        {
          "internalType": "contract IERC20",
          "name": "newIndexedERC20",
          "type": "address"
        },
        {
          "internalType": "address",
          "name": "newReserveAddress",
          "type": "address"
        }
      ],
      "stateMutability": "nonpayable",
      "type": "constructor"
    },
    {
      "inputs": [],
      "name": "IncorrectLengthForArrays",
      "type": "error"
    },
    {
      "inputs": [],
      "name": "NotEnoughFunds",
      "type": "error"
    },
    {
      "inputs": [
        {
          "internalType": "uint256",
          "name": "phaseId",
          "type": "uint256"
        }
      ],
      "name": "PhaseDoesNotExist",
      "type": "error"
    },
    {
      "inputs": [],
      "name": "PriceRatioTooLow",
      "type": "error"
    },
    {
      "inputs": [],
      "name": "SalePhaseNotActivated",
      "type": "error"
    },
    {
      "inputs": [],
      "name": "TgeAlreadyClaimed",
      "type": "error"
    },
    {
      "inputs": [],
      "name": "TgeClaimNotEnabled",
      "type": "error"
    },
    {
      "inputs": [],
      "name": "TransferFailed",
      "type": "error"
    },
    {
      "inputs": [],
      "name": "UserHardcapReached",
      "type": "error"
    },
    {
      "inputs": [],
      "name": "UserNotWhitelisted",
      "type": "error"
    },
    {
      "inputs": [],
      "name": "VestedAlreadyClaimed",
      "type": "error"
    },
    {
      "inputs": [],
      "name": "VestedClaimNotEnabled",
      "type": "error"
    },
    {
      "inputs": [],
      "name": "ZeroAddressNotAllowed",
      "type": "error"
    },
    {
      "anonymous": false,
      "inputs": [
        {
          "indexed": true,
          "internalType": "uint256",
          "name": "phaseId",
          "type": "uint256"
        },
        {
          "indexed": false,
          "internalType": "address[]",
          "name": "addressesAdded",
          "type": "address[]"
        }
      ],
      "name": "AddedToWhitelist",
      "type": "event"
    },
    {
      "anonymous": false,
      "inputs": [
        {
          "indexed": true,
          "internalType": "address",
          "name": "previousOwner",
          "type": "address"
        },
        {
          "indexed": true,
          "internalType": "address",
          "name": "newOwner",
          "type": "address"
        }
      ],
      "name": "OwnershipTransferred",
      "type": "event"
    },
    {
      "anonymous": false,
      "inputs": [
        {
          "indexed": false,
          "internalType": "address",
          "name": "newReserveAddress",
          "type": "address"
        }
      ],
      "name": "ReserveAddressUpdated",
      "type": "event"
    },
    {
      "anonymous": false,
      "inputs": [
        {
          "indexed": true,
          "internalType": "uint256",
          "name": "phaseId",
          "type": "uint256"
        },
        {
          "indexed": false,
          "internalType": "uint256",
          "name": "priceRatio",
          "type": "uint256"
        },
        {
          "indexed": false,
          "internalType": "bool",
          "name": "saleStatus",
          "type": "bool"
        },
        {
          "indexed": false,
          "internalType": "uint256",
          "name": "vestingPeriod",
          "type": "uint256"
        },
        {
          "indexed": false,
          "internalType": "bool",
          "name": "tgeClaimStatus",
          "type": "bool"
        },
        {
          "indexed": false,
          "internalType": "uint256",
          "name": "tgeClaimBp",
          "type": "uint256"
        }
      ],
      "name": "SalePhaseAdded",
      "type": "event"
    },
    {
      "anonymous": false,
      "inputs": [
        {
          "indexed": true,
          "internalType": "uint256",
          "name": "phaseId",
          "type": "uint256"
        },
        {
          "indexed": true,
          "internalType": "address",
          "name": "user",
          "type": "address"
        },
        {
          "indexed": false,
          "internalType": "uint256",
          "name": "newHardcap",
          "type": "uint256"
        }
      ],
      "name": "SalePhaseIndividualHardcapForUserUpdated",
      "type": "event"
    },
    {
      "anonymous": false,
      "inputs": [
        {
          "indexed": true,
          "internalType": "uint256",
          "name": "phaseId",
          "type": "uint256"
        },
        {
          "indexed": false,
          "internalType": "bool",
          "name": "status",
          "type": "bool"
        }
      ],
      "name": "SalePhaseStatusUpdated",
      "type": "event"
    },
    {
      "anonymous": false,
      "inputs": [
        {
          "indexed": true,
          "internalType": "uint256",
          "name": "phaseId",
          "type": "uint256"
        },
        {
          "indexed": false,
          "internalType": "uint256",
          "name": "vestingPeriod",
          "type": "uint256"
        }
      ],
      "name": "SalePhaseVestingPeriodUpdated",
      "type": "event"
    },
    {
      "anonymous": false,
      "inputs": [
        {
          "indexed": true,
          "internalType": "uint256",
          "name": "phaseId",
          "type": "uint256"
        },
        {
          "indexed": false,
          "internalType": "uint256",
          "name": "bp",
          "type": "uint256"
        }
      ],
      "name": "TgeClaimBpUpdated",
      "type": "event"
    },
    {
      "anonymous": false,
      "inputs": [
        {
          "indexed": true,
          "internalType": "uint256",
          "name": "phaseId",
          "type": "uint256"
        },
        {
          "indexed": false,
          "internalType": "bool",
          "name": "status",
          "type": "bool"
        }
      ],
      "name": "TgeClaimStatusUpdated",
      "type": "event"
    },
    {
      "anonymous": false,
      "inputs": [
        {
          "indexed": true,
          "internalType": "address",
          "name": "user",
          "type": "address"
        },
        {
          "indexed": false,
          "internalType": "uint256",
          "name": "tokenAmount",
          "type": "uint256"
        }
      ],
      "name": "TgeClaimedByUser",
      "type": "event"
    },
    {
      "anonymous": false,
      "inputs": [
        {
          "indexed": true,
          "internalType": "address",
          "name": "user",
          "type": "address"
        },
        {
          "indexed": false,
          "internalType": "uint256",
          "name": "tokenAmount",
          "type": "uint256"
        }
      ],
      "name": "VestingClaimedByUser",
      "type": "event"
    },
    {
      "anonymous": false,
      "inputs": [
        {
          "indexed": true,
          "internalType": "uint256",
          "name": "phaseId",
          "type": "uint256"
        },
        {
          "indexed": true,
          "internalType": "address",
          "name": "buyerAddress",
          "type": "address"
        },
        {
          "indexed": false,
          "internalType": "uint256",
          "name": "amountSpent",
          "type": "uint256"
        },
        {
          "indexed": false,
          "internalType": "uint256",
          "name": "tokenBought",
          "type": "uint256"
        }
      ],
      "name": "investedInSale",
      "type": "event"
    },
    {
      "anonymous": false,
      "inputs": [
        {
          "indexed": true,
          "internalType": "uint256",
          "name": "phaseId",
          "type": "uint256"
        },
        {
          "indexed": false,
          "internalType": "uint256",
          "name": "newPriceRatio",
          "type": "uint256"
        }
      ],
      "name": "priceRatioForSalePhaseUpdated",
      "type": "event"
    },
    {
      "inputs": [
        {
          "components": [
            {
              "internalType": "uint256",
              "name": "priceRatio",
              "type": "uint256"
            },
            {
              "internalType": "bool",
              "name": "saleStatus",
              "type": "bool"
            },
            {
              "internalType": "uint256",
              "name": "vestingPeriod",
              "type": "uint256"
            },
            {
              "internalType": "bool",
              "name": "tgeClaimStatus",
              "type": "bool"
            },
            {
              "internalType": "uint256",
              "name": "tgeClaimBp",
              "type": "uint256"
            }
          ],
          "internalType": "struct SmartPublicSale.SalePhase",
          "name": "newSalePhase",
          "type": "tuple"
        }
      ],
      "name": "addSalePhase",
      "outputs": [],
      "stateMutability": "nonpayable",
      "type": "function"
    },
    {
      "inputs": [
        {
          "internalType": "uint256",
          "name": "phaseId",
          "type": "uint256"
        },
        {
          "internalType": "address[]",
          "name": "addressesToWhitelist",
          "type": "address[]"
        },
        {
          "internalType": "uint256[]",
          "name": "usersIndividualHardcap",
          "type": "uint256[]"
        }
      ],
      "name": "addToWhitelist",
      "outputs": [],
      "stateMutability": "nonpayable",
      "type": "function"
    },
    {
      "inputs": [
        {
          "internalType": "address",
          "name": "",
          "type": "address"
        },
        {
          "internalType": "uint256",
          "name": "",
          "type": "uint256"
        }
      ],
      "name": "addressToPhaseIdToInvestor",
      "outputs": [
        {
          "internalType": "uint256",
          "name": "individualHardcap",
          "type": "uint256"
        },
        {
          "internalType": "uint256",
          "name": "investedAmount",
          "type": "uint256"
        },
        {
          "internalType": "uint256",
          "name": "amountOfTokenPurchased",
          "type": "uint256"
        },
        {
          "internalType": "bool",
          "name": "isWhitelisted",
          "type": "bool"
        },
        {
          "internalType": "uint256",
          "name": "tgeClaimable",
          "type": "uint256"
        },
        {
          "internalType": "uint256",
          "name": "vestedClaimable",
          "type": "uint256"
        }
      ],
      "stateMutability": "view",
      "type": "function"
    },
    {
      "inputs": [
        {
          "internalType": "uint256",
          "name": "phaseId",
          "type": "uint256"
        }
      ],
      "name": "claimTgeTokens",
      "outputs": [],
      "stateMutability": "nonpayable",
      "type": "function"
    },
    {
      "inputs": [
        {
          "internalType": "uint256",
          "name": "phaseId",
          "type": "uint256"
        }
      ],
      "name": "claimVestedTokens",
      "outputs": [],
      "stateMutability": "nonpayable",
      "type": "function"
    },
    {
      "inputs": [
        {
          "internalType": "uint256",
          "name": "phaseId",
          "type": "uint256"
        },
        {
          "internalType": "address",
          "name": "investorAddress",
          "type": "address"
        }
      ],
      "name": "getInvestorInfoFromSalePhaseId",
      "outputs": [
        {
          "components": [
            {
              "internalType": "uint256",
              "name": "individualHardcap",
              "type": "uint256"
            },
            {
              "internalType": "uint256",
              "name": "investedAmount",
              "type": "uint256"
            },
            {
              "internalType": "uint256",
              "name": "amountOfTokenPurchased",
              "type": "uint256"
            },
            {
              "internalType": "bool",
              "name": "isWhitelisted",
              "type": "bool"
            },
            {
              "internalType": "uint256",
              "name": "tgeClaimable",
              "type": "uint256"
            },
            {
              "internalType": "uint256",
              "name": "vestedClaimable",
              "type": "uint256"
            }
          ],
          "internalType": "struct SmartPublicSale.Investor",
          "name": "",
          "type": "tuple"
        }
      ],
      "stateMutability": "view",
      "type": "function"
    },
    {
      "inputs": [],
      "name": "indexedERC20",
      "outputs": [
        {
          "internalType": "contract IERC20",
          "name": "",
          "type": "address"
        }
      ],
      "stateMutability": "view",
      "type": "function"
    },
    {
      "inputs": [
        {
          "internalType": "uint256",
          "name": "phaseId",
          "type": "uint256"
        }
      ],
      "name": "investInPhase",
      "outputs": [],
      "stateMutability": "payable",
      "type": "function"
    },
    {
      "inputs": [],
      "name": "owner",
      "outputs": [
        {
          "internalType": "address",
          "name": "",
          "type": "address"
        }
      ],
      "stateMutability": "view",
      "type": "function"
    },
    {
      "inputs": [],
      "name": "renounceOwnership",
      "outputs": [],
      "stateMutability": "nonpayable",
      "type": "function"
    },
    {
      "inputs": [],
      "name": "reserveAddress",
      "outputs": [
        {
          "internalType": "address",
          "name": "",
          "type": "address"
        }
      ],
      "stateMutability": "view",
      "type": "function"
    },
    {
      "inputs": [
        {
          "internalType": "address",
          "name": "newReserveAddress",
          "type": "address"
        }
      ],
      "name": "setReserveAddress",
      "outputs": [],
      "stateMutability": "nonpayable",
      "type": "function"
    },
    {
      "inputs": [
        {
          "internalType": "uint256",
          "name": "phaseId",
          "type": "uint256"
        },
        {
          "internalType": "address",
          "name": "whitelistedUser",
          "type": "address"
        },
        {
          "internalType": "uint256",
          "name": "newHardcap",
          "type": "uint256"
        }
      ],
      "name": "setSalePhasePriceHardcapForUser",
      "outputs": [],
      "stateMutability": "nonpayable",
      "type": "function"
    },
    {
      "inputs": [
        {
          "internalType": "uint256",
          "name": "phaseId",
          "type": "uint256"
        },
        {
          "internalType": "bool",
          "name": "newStatus",
          "type": "bool"
        }
      ],
      "name": "setSalePhaseStatus",
      "outputs": [],
      "stateMutability": "nonpayable",
      "type": "function"
    },
    {
      "inputs": [
        {
          "internalType": "uint256",
          "name": "phaseId",
          "type": "uint256"
        },
        {
          "internalType": "uint256",
          "name": "newTgeClaimBp",
          "type": "uint256"
        }
      ],
      "name": "setSalePhaseTgeClaimBp",
      "outputs": [],
      "stateMutability": "nonpayable",
      "type": "function"
    },
    {
      "inputs": [
        {
          "internalType": "uint256",
          "name": "phaseId",
          "type": "uint256"
        },
        {
          "internalType": "bool",
          "name": "newStatus",
          "type": "bool"
        }
      ],
      "name": "setSalePhaseTgeClaimStatus",
      "outputs": [],
      "stateMutability": "nonpayable",
      "type": "function"
    },
    {
      "inputs": [
        {
          "internalType": "uint256",
          "name": "phaseId",
          "type": "uint256"
        },
        {
          "internalType": "uint256",
          "name": "newVestingPeriod",
          "type": "uint256"
        }
      ],
      "name": "setSalePhaseVestingPeriod",
      "outputs": [],
      "stateMutability": "nonpayable",
      "type": "function"
    },
    {
      "inputs": [],
      "name": "totalSalePhase",
      "outputs": [
        {
          "internalType": "uint256",
          "name": "",
          "type": "uint256"
        }
      ],
      "stateMutability": "view",
      "type": "function"
    },
    {
      "inputs": [],
      "name": "totalSold",
      "outputs": [
        {
          "internalType": "uint256",
          "name": "",
          "type": "uint256"
        }
      ],
      "stateMutability": "view",
      "type": "function"
    },
    {
      "inputs": [
        {
          "internalType": "address",
          "name": "newOwner",
          "type": "address"
        }
      ],
      "name": "transferOwnership",
      "outputs": [],
      "stateMutability": "nonpayable",
      "type": "function"
    },
    {
      "inputs": [
        {
          "internalType": "uint256",
          "name": "",
          "type": "uint256"
        }
      ],
      "name": "uintToSalePhase",
      "outputs": [
        {
          "internalType": "uint256",
          "name": "priceRatio",
          "type": "uint256"
        },
        {
          "internalType": "bool",
          "name": "saleStatus",
          "type": "bool"
        },
        {
          "internalType": "uint256",
          "name": "vestingPeriod",
          "type": "uint256"
        },
        {
          "internalType": "bool",
          "name": "tgeClaimStatus",
          "type": "bool"
        },
        {
          "internalType": "uint256",
          "name": "tgeClaimBp",
          "type": "uint256"
        }
      ],
      "stateMutability": "view",
      "type": "function"
    },
    {
      "inputs": [
        {
          "internalType": "uint256",
          "name": "",
          "type": "uint256"
        }
      ],
      "name": "uintToTotalInvestedInSalePhase",
      "outputs": [
        {
          "internalType": "uint256",
          "name": "",
          "type": "uint256"
        }
      ],
      "stateMutability": "view",
      "type": "function"
    },
    {
      "inputs": [
        {
          "internalType": "uint256",
          "name": "",
          "type": "uint256"
        }
      ],
      "name": "uintToTotalTokenBoughtInSalePhase",
      "outputs": [
        {
          "internalType": "uint256",
          "name": "",
          "type": "uint256"
        }
      ],
      "stateMutability": "view",
      "type": "function"
    },
    {
      "inputs": [
        {
          "internalType": "uint256",
          "name": "",
          "type": "uint256"
        }
      ],
      "name": "uintToUnlockTimestampInSalePhase",
      "outputs": [
        {
          "internalType": "uint256",
          "name": "",
          "type": "uint256"
        }
      ],
      "stateMutability": "view",
      "type": "function"
    },
    {
      "inputs": [
        {
          "internalType": "uint256",
          "name": "phaseId",
          "type": "uint256"
        },
        {
          "internalType": "uint256",
          "name": "newPriceRatio",
          "type": "uint256"
        }
      ],
      "name": "updateSalePhasePriceRatio",
      "outputs": [],
      "stateMutability": "nonpayable",
      "type": "function"
    }
  ],
  "bytecode": "0x60806040523480156200001157600080fd5b5060405162001ef538038062001ef58339810160408190526200003491620000c5565b6200003f3362000075565b60018055600780546001600160a01b039384166001600160a01b031991821617909155600a80549290931691161790556200011c565b600080546001600160a01b038381166001600160a01b0319831681178455604051919092169283917f8be0079c531659141344cd1fd0a4f28419497f9722a3daafe3b4186f6b6457e09190a35050565b60008060408385031215620000d8578182fd5b8251620000e58162000103565b6020840151909250620000f88162000103565b809150509250929050565b6001600160a01b03811681146200011957600080fd5b50565b611dc9806200012c6000396000f3fe6080604052600436106101265760003560e01c806314673d311461012b5780631fa1a45a1461014d5780632f3190371461018d5780633d390e6b146101ad57806340d535af146101cd57806361847325146101ed578063715018a6146102035780637935510b146102185780637c8ecc95146102385780638920a8c2146102655780638c6c60cd146102855780638da5cb5b146103135780639106d7ba1461033557806395ec72e01461034b578063994234991461035e5780639b0dc7f41461037e5780639e048634146103ec578063a47f5cf31461040c578063aae067f414610439578063c563104b1461049c578063e1573016146104bc578063e5049d79146104dc578063eaf4ab52146104fc578063f2fde38b1461051c578063f79ed94b1461053c575b600080fd5b34801561013757600080fd5b5061014b610146366004611941565b61055c565b005b34801561015957600080fd5b5061017a6101683660046119d3565b60066020526000908152604090205481565b6040519081526020015b60405180910390f35b34801561019957600080fd5b5061014b6101a8366004611ad8565b610611565b3480156101b957600080fd5b5061014b6101c8366004611a2e565b6106d6565b3480156101d957600080fd5b5061014b6101e8366004611b07565b610795565b3480156101f957600080fd5b5061017a60085481565b34801561020f57600080fd5b5061014b610858565b34801561022457600080fd5b5061014b6102333660046119d3565b610893565b34801561024457600080fd5b5061017a6102533660046119d3565b60046020526000908152604090205481565b34801561027157600080fd5b5061014b610280366004611a62565b610a26565b34801561029157600080fd5b506102e46102a036600461195b565b6003602081815260009384526040808520909152918352912080546001820154600283015493830154600484015460059094015492949193919260ff909116919086565b6040805196875260208701959095529385019290925215156060840152608083015260a082015260c001610184565b34801561031f57600080fd5b50610328610bfa565b6040516101849190611b44565b34801561034157600080fd5b5061017a60095481565b61014b6103593660046119d3565b610c09565b34801561036a57600080fd5b5061014b610379366004611b07565b610fb2565b34801561038a57600080fd5b5061039e610399366004611a03565b61105a565b6040516101849190600060c0820190508251825260208301516020830152604083015160408301526060830151151560608301526080830151608083015260a083015160a083015292915050565b3480156103f857600080fd5b5061014b610407366004611b07565b611135565b34801561041857600080fd5b5061017a6104273660046119d3565b60056020526000908152604090205481565b34801561044557600080fd5b5061048b6104543660046119d3565b600260208190526000918252604090912080546001820154928201546003830154600490930154919360ff90811693919291169085565b604051610184959493929190611c43565b3480156104a857600080fd5b50600754610328906001600160a01b031681565b3480156104c857600080fd5b5061014b6104d73660046119d3565b6111dd565b3480156104e857600080fd5b5061014b6104f7366004611ad8565b611339565b34801561050857600080fd5b5061014b6105173660046119bc565b6113ec565b34801561052857600080fd5b5061014b610537366004611941565b6114ce565b34801561054857600080fd5b50600a54610328906001600160a01b031681565b33610565610bfa565b6001600160a01b0316146105945760405162461bcd60e51b815260040161058b90611bd7565b60405180910390fd5b6001600160a01b0381166105bb576040516342bcdf7f60e11b815260040160405180910390fd5b600a80546001600160a01b0319166001600160a01b0383161790556040517f279ea638680bba6a87fddd8bcdbc37d94eee92841e1dfec2ab0f79662c70931190610606908390611b44565b60405180910390a150565b6000828152600260205260409020548290610642576040516304d90be760e11b81526004810182905260240161058b565b3361064b610bfa565b6001600160a01b0316146106715760405162461bcd60e51b815260040161058b90611bd7565b6000838152600260209081526040808320600301805460ff191686151590811790915560068352928190204290555191825284917fc884a694f951f8494ad75aaabea5b1303d94fe4ff6986aeec4d0ea6e38d2885e91015b60405180910390a2505050565b6000838152600260205260409020548390610707576040516304d90be760e11b81526004810182905260240161058b565b33610710610bfa565b6001600160a01b0316146107365760405162461bcd60e51b815260040161058b90611bd7565b6001600160a01b0383166000818152600360209081526040808320888452825291829020859055905184815286917f862ce6ef606d75c618f02da0af78fb1f926d3ffc85917731a114e367a9f5d1c9910160405180910390a350505050565b60008281526002602052604090205482906107c6576040516304d90be760e11b81526004810182905260240161058b565b336107cf610bfa565b6001600160a01b0316146107f55760405162461bcd60e51b815260040161058b90611bd7565b81610813576040516315e6d7e760e21b815260040160405180910390fd5b600083815260026020526040908190208390555183907fea4dee1d42308ca67828a7a03fe5e94ac440d9dd4ab03578db546df77bf40362906106c99085815260200190565b33610861610bfa565b6001600160a01b0316146108875760405162461bcd60e51b815260040161058b90611bd7565b610891600061156e565b565b60008181526002602052604090205481906108c4576040516304d90be760e11b81526004810182905260240161058b565b600260015414156108e75760405162461bcd60e51b815260040161058b90611c0c565b6002600181815560008481526020838152604091829020825160a081018452815481529381015460ff908116151592850192909252938401549183019190915260038301541615801560608301526004909201546080820152908061096957506000838152600660205260409081902054908201516109669190611c68565b42105b156109875760405163ad27003d60e01b815260040160405180910390fd5b336000908152600360209081526040808320868452909152902060058101546109c35760405163703faa7160e01b815260040160405180910390fd5b60058101805460009091556007546109e5906001600160a01b031633836115be565b60405181815233907fb3abb35c0189b87e0d20206f38fb0f88ca4e9ce02c711a39a7eba917af8da171906020015b60405180910390a2505060018055505050565b6000858152600260205260409020548590610a57576040516304d90be760e11b81526004810182905260240161058b565b33610a60610bfa565b6001600160a01b031614610a865760405162461bcd60e51b815260040161058b90611bd7565b8382808214610aa857604051630d0d8a1360e11b815260040160405180910390fd5b60005b82811015610bb5576001600360008a8a85818110610ad957634e487b7160e01b600052603260045260246000fd5b9050602002016020810190610aee9190611941565b6001600160a01b03168152602080820192909252604090810160009081208d82529092529020600301805460ff1916911515919091179055858582818110610b4657634e487b7160e01b600052603260045260246000fd5b90506020020135600360008a8a85818110610b7157634e487b7160e01b600052603260045260246000fd5b9050602002016020810190610b869190611941565b6001600160a01b03168152602080820192909252604090810160009081208d8252909252902055600101610aab565b50877f6715552b7d237a77cf279347d17dd65624702b913d2560322d5fa5d8e7722a378888604051610be8929190611b58565b60405180910390a25050505050505050565b6000546001600160a01b031690565b6000818152600260205260409020548190610c3a576040516304d90be760e11b81526004810182905260240161058b565b60026001541415610c5d5760405162461bcd60e51b815260040161058b90611c0c565b6002600181815560008481526020838152604091829020825160a081018452815481529381015460ff9081161515928501839052948101549284019290925260038201549093161515606083015260040154608082015290610cd257604051631807ea8760e31b815260040160405180910390fd5b3360009081526003602081815260408084208785529091529091209081015460ff16610d1157604051632ba75b2560e01b815260040160405180910390fd5b80546001820154610d23903490611c68565b1115610d4257604051632656946360e21b815260040160405180910390fd5b8151600090670de0b6b3a764000090610d5b9034611ca0565b610d659190611c80565b905060095481610d759190611c68565b6007546040516370a0823160e01b81526001600160a01b03909116906370a0823190610da5903090600401611b44565b60206040518083038186803b158015610dbd57600080fd5b505afa158015610dd1573d6000803e3d6000fd5b505050506040513d601f19601f82011682018060405250810190610df591906119eb565b1015610e1457604051631036b5ad60e31b815260040160405180910390fd5b8060096000828254610e269190611c68565b909155505060008581526004602052604081208054349290610e49908490611c68565b909155505060008581526005602052604081208054839290610e6c908490611c68565b9250508190555034826001016000828254610e879190611c68565b92505081905550600080610ea083848760800151611615565b9150915082846002016000828254610eb89190611c68565b9250508190555080846004016000828254610ed39190611c68565b9250508190555081846005016000828254610eee9190611c68565b9091555050600a546040516000916001600160a01b03169034908381818185875af1925050503d8060008114610f40576040519150601f19603f3d011682016040523d82523d6000602084013e610f45565b606091505b5050905080610f67576040516312171d8360e31b815260040160405180910390fd5b604080513481526020810186905233918a917fba03c5f2d85fb7dd36b81d7734e2695ad2e9dbb9f64f0fc1d40d1d589b999c6a910160405180910390a3505060018055505050505050565b6000828152600260205260409020548290610fe3576040516304d90be760e11b81526004810182905260240161058b565b33610fec610bfa565b6001600160a01b0316146110125760405162461bcd60e51b815260040161058b90611bd7565b600083815260026020526040908190206004018390555183907fbfd65cc7c19c8143f5dc718edb94fd4ba67f0be789f5cccc880eec33868d52f7906106c99085815260200190565b6110956040518060c0016040528060008152602001600081526020016000815260200160001515815260200160008152602001600081525090565b60008381526002602052604090205483906110c6576040516304d90be760e11b81526004810182905260240161058b565b50506001600160a01b0316600090815260036020818152604080842094845293815291839020835160c0810185528154815260018201549381019390935260028101549383019390935282015460ff16151560608201526004820154608082015260059091015460a082015290565b6000828152600260205260409020548290611166576040516304d90be760e11b81526004810182905260240161058b565b3361116f610bfa565b6001600160a01b0316146111955760405162461bcd60e51b815260040161058b90611bd7565b600083815260026020819052604091829020018390555183907f2d0e40a2081da6471e6da9d556c3232d8975377c2acf9030812a61b0bb042278906106c99085815260200190565b600081815260026020526040902054819061120e576040516304d90be760e11b81526004810182905260240161058b565b600260015414156112315760405162461bcd60e51b815260040161058b90611c0c565b6002600181815560008481526020838152604091829020825160a081018452815481529381015460ff90811615159285019290925293840154918301919091526003830154161515606082018190526004909201546080820152906112a9576040516307b35c5960e51b815260040160405180910390fd5b336000908152600360209081526040808320868452909152902060048101546112e55760405163e60266a760e01b815260040160405180910390fd5b6004810180546000909155600754611307906001600160a01b031633836115be565b60405181815233907fa082830151f339041206a80a38178331167d52984310aed5c6ac383b0fff3c6190602001610a13565b600082815260026020526040902054829061136a576040516304d90be760e11b81526004810182905260240161058b565b33611373610bfa565b6001600160a01b0316146113995760405162461bcd60e51b815260040161058b90611bd7565b600083815260026020908152604091829020600101805460ff1916851515908117909155915191825284917f87d39ce99fb140e6e28c282923865879fb935ca4ce9273845e00749e7fb9c87591016106c9565b336113f5610bfa565b6001600160a01b03161461141b5760405162461bcd60e51b815260040161058b90611bd7565b6008805460010190558035611443576040516315e6d7e760e21b815260040160405180910390fd5b600854600090815260026020526040902081906114608282611d31565b50506008547f198e74893b0b72b716aa8643209abd4c41b41ea424a14d005abe485adef5e60d82356114986040850160208601611984565b60408501356114ad6080870160608801611984565b86608001356040516114c3959493929190611c43565b60405180910390a250565b336114d7610bfa565b6001600160a01b0316146114fd5760405162461bcd60e51b815260040161058b90611bd7565b6001600160a01b0381166115625760405162461bcd60e51b815260206004820152602660248201527f4f776e61626c653a206e6577206f776e657220697320746865207a65726f206160448201526564647265737360d01b606482015260840161058b565b61156b8161156e565b50565b600080546001600160a01b038381166001600160a01b0319831681178455604051919092169283917f8be0079c531659141344cd1fd0a4f28419497f9722a3daafe3b4186f6b6457e09190a35050565b604080516001600160a01b038416602482015260448082018490528251808303909101815260649091019091526020810180516001600160e01b031663a9059cbb60e01b179052611610908490611637565b505050565b60008061162b856116268686611709565b611735565b91509150935093915050565b600061168c826040518060400160405280602081526020017f5361666545524332303a206c6f772d6c6576656c2063616c6c206661696c6564815250856001600160a01b03166117629092919063ffffffff16565b80519091501561161057808060200190518101906116aa91906119a0565b6116105760405162461bcd60e51b815260206004820152602a60248201527f5361666545524332303a204552433230206f7065726174696f6e20646964206e6044820152691bdd081cdd58d8d9595960b21b606482015260840161058b565b60008161171757600061172e565b6127106117248385611ca0565b61172e9190611c80565b9392505050565b600080828411156117545761174a8385611cbf565b915082905061175b565b5060009050825b9250929050565b60606117718484600085611779565b949350505050565b6060824710156117da5760405162461bcd60e51b815260206004820152602660248201527f416464726573733a20696e73756666696369656e742062616c616e636520666f6044820152651c8818d85b1b60d21b606482015260840161058b565b6001600160a01b0385163b6118315760405162461bcd60e51b815260206004820152601d60248201527f416464726573733a2063616c6c20746f206e6f6e2d636f6e7472616374000000604482015260640161058b565b600080866001600160a01b0316858760405161184d9190611b28565b60006040518083038185875af1925050503d806000811461188a576040519150601f19603f3d011682016040523d82523d6000602084013e61188f565b606091505b509150915061189f8282866118aa565b979650505050505050565b606083156118b957508161172e565b8251156118c95782518084602001fd5b8160405162461bcd60e51b815260040161058b9190611ba4565b80356001600160a01b03811681146118fa57600080fd5b919050565b60008083601f840112611910578182fd5b5081356001600160401b03811115611926578182fd5b6020830191508360208260051b850101111561175b57600080fd5b600060208284031215611952578081fd5b61172e826118e3565b6000806040838503121561196d578081fd5b611976836118e3565b946020939093013593505050565b600060208284031215611995578081fd5b813561172e81611d85565b6000602082840312156119b1578081fd5b815161172e81611d85565b600060a082840312156119cd578081fd5b50919050565b6000602082840312156119e4578081fd5b5035919050565b6000602082840312156119fc578081fd5b5051919050565b60008060408385031215611a15578182fd5b82359150611a25602084016118e3565b90509250929050565b600080600060608486031215611a42578081fd5b83359250611a52602085016118e3565b9150604084013590509250925092565b600080600080600060608688031215611a79578081fd5b8535945060208601356001600160401b0380821115611a96578283fd5b611aa289838a016118ff565b90965094506040880135915080821115611aba578283fd5b50611ac7888289016118ff565b969995985093965092949392505050565b60008060408385031215611aea578182fd5b823591506020830135611afc81611d85565b809150509250929050565b60008060408385031215611b19578182fd5b50508035926020909101359150565b60008251611b3a818460208701611cd6565b9190910192915050565b6001600160a01b0391909116815260200190565b60208082528181018390526000908460408401835b86811015611b99576001600160a01b03611b86846118e3565b1682529183019190830190600101611b6d565b509695505050505050565b6020815260008251806020840152611bc3816040850160208701611cd6565b601f01601f19169190910160400192915050565b6020808252818101527f4f776e61626c653a2063616c6c6572206973206e6f7420746865206f776e6572604082015260600190565b6020808252601f908201527f5265656e7472616e637947756172643a207265656e7472616e742063616c6c00604082015260600190565b9485529215156020850152604084019190915215156060830152608082015260a00190565b60008219821115611c7b57611c7b611d06565b500190565b600082611c9b57634e487b7160e01b81526012600452602481fd5b500490565b6000816000190483118215151615611cba57611cba611d06565b500290565b600082821015611cd157611cd1611d06565b500390565b60005b83811015611cf1578181015183820152602001611cd9565b83811115611d00576000848401525b50505050565b634e487b7160e01b600052601160045260246000fd5b60ff1981541660ff8315151681178255505050565b813581556020820135611d4381611d85565b611d508160018401611d1c565b50604082013560028201556060820135611d6981611d85565b611d768160038401611d1c565b50608082013560048201555050565b801515811461156b57600080fdfea2646970667358221220f527d8401ed93af5a95ded1b75aa7cc3ccc147a0dde669445e1187cf10ccf19964736f6c63430008040033",
  "linkReferences": {},
  "deployedLinkReferences": {}
}